:0A04DD003F065B4F666D7D077F6FE1
:1004C400021E001402200000022200000224000088
:0804D400021C000002260000DA
:1003AA00FC7D6412020E7E007F0ACFCDCFCECCCE6A
:1003BA0012020E74DD2FF58274043EF583E493F481
:0603CA00F5807F017E00BA
:0A03D000EF1FAC0670011E4C601A0E
:1003DA00E4F51AF51BC3E51B94C8E51A940050E628
:0A03EA00051BE51B70EF051A80EB00
:0103F40022E6
:10001600852418852519AB23AA22AD21AC20AF1F54
:02002600AE1E0C
:100028008E128F138C148D1575A001AE12AF137C30
:10003800001203ABE4F5A07580FF75A002AE12AF05
:1000480013FC7D0A12020E74DD2DF58274043C1235
:1000580003C5E4F5A07580FF75A004AE14AF1512B2
:1000680003AAE4F5A07580FF75A008AE14AF15FCCF
:100078007D0A12020E74DD2DF58274043C1203C54C
:10008800E4F5A07580FF75A010FC7D64AF03AE0297
:100098001203ADE4F5A07580FF75A020AE02AF0392
:1000A800FC7D0A12020E74DD2DF58274043C1203E5
:1000B800C5E4F5A07580FF75A040AE18AF1912030E
:1000C800AAE4F5A07580FF75A080AE18AF19FC7D75
:1000D8000A12020E74DD2DF58274043C1203C5E485
:0600E800F5A07580FF2267
:03000B0002029955
:10029900C0E0C0F0C083C082C0D075D000C000C02B
:1002A90002C003C004C005C006C007758CB1758AB9
:1002B90010C3E52064809480500E75200075213BA1
:1002C900E51F151F7002151E051DE51D7002051C91
:1002D9006432451C700EE521152170021520751C2C
:1002E90000751D00120016D007D006D005D004D025
:1002F90003D002D000D0D0D082D083D0F0D0E03269
:0300030002043FB5
:10043F00C0E0C0D074022523F523E43522F522D382
:10044F00E5239462E522648094804006752200754E
:07045F002362D0D0D0E0328F
:030013000204667E
:10046600C0E0C0D074022525F525E43524F524D353
:10047600E5259462E5246480948040067524007521
:070486002562D0D0D0E03266
:10035C002092221203CC20921C0521E5217002056B
:10036C0020643C4520700E051FE51F7002051E75AC
:10037C0020007521012093251203CC20931FE52129
:10038C00152170021520C3E52064809480500E75F1
:0E039C00200075213BE51F151F7002151E2263
:1004A9002091171203CC3091FDAF23AE228524226F
:0A04B9008525238E248F25120016DE
:0104C3002216
:10048D002090181203CC3090FDC2AF1200162090B0
:0C049D00FA1203CC209004D2AF80F922A8
:1000EE00E51F451E700BE52145207005FE7F018042
:1000FE00047E007F007C0020B2047D0180027D0022
:10010E00EC4EFEED4FFF7C0020B3047D0180027D9E
:10011E0000EC4EFEED4FFF7C002090047D0180022E
:10012E007D00EC4EFEED4FFF7C002091047D0180A2
:10013E00027D00EC4EFEED4FFF7C002092047D010F
:10014E0080027D00EC4EFEED4FFF7C002093047D7F
:10015E000180027D00EC4EFEED4F4E6016D2B7D2FE
:10016E00B67F057E001203D0C2B7C2B67F057E00F1
:04017E001203D02276
:1003F500E527640145267041C2AF7F14FE1203D084
:10040500E4F51EF51FF520F521D2B6D2B77FC8FE5B
:100415001203D0C2B7C2B61200161204A92090F773
:100425001203CC2090F1D2AF751E00751F14E4F5B0
:0904350020F521F526F52780B71A
:01043E00229B
:10030900D2A8D2AAD288D28AD2BAC2B8758901D261
:10031900AFD2A9C2B77580FFE4F5A0209034758CDF
:10032900B1758A10D28C75B0FF75907FC2B7120370
:100339005C1204A912048D1200EEE51F451E700D12
:10034900E521640145207005F5267527011203F59D
:0303590080DC2223
:0300000002018278
:0C018200787FE4F6D8FD7581290201C9E0
:10020E00C2D5EC30E709B2D5E4C39DFDE49CFCEE0B
:10021E0030E715B2D5E4C39FFFE49EFE120244C33D
:10022E00E49DFDE49CFC800312024430D507C3E438
:06023E009FFFE49EFE227A
:10018E00020309E493A3F8E493A34003F68001F27B
:10019E0008DFF48029E493A3F85407240CC8C33372
:1001AE00C4540F4420C8834004F456800146F6DF41
:1001BE00E4800B01020408102040809004C4E47E09
:1001CE00019360BCA3FF543F30E509541FFEE49336
:1001DE00A360010ECF54C025E060A840B8E493A3FD
:1001EE00FAE493A3F8E493A3C8C582C8CAC583CA28
:1001FE00F0A3C8C582C8CAC583CADFE9DEE780BEE0
:0104DC00001F
:10024400BC000BBE0029EF8DF084FFADF022E4CC9E
:10025400F875F008EF2FFFEE33FEEC33FCEE9DEC67
:10026400984005FCEE9DFE0FD5F0E9E4CEFD22EDAD
:10027400F8F5F0EE8420D21CFEADF075F008EF2FF7
:10028400FFED33FD4007985006D5F0F222C398FDE8
:050294000FD5F0EA2285
:00000001FF
